{
  "contractName": "TodoList",
  "abi": [
    {
      "constant": true,
      "inputs": [
        {
          "name": "",
          "type": "uint256"
        }
      ],
      "name": "tasks",
      "outputs": [
        {
          "name": "id",
          "type": "uint256"
        },
        {
          "name": "content",
          "type": "string"
        },
        {
          "name": "completed",
          "type": "bool"
        }
      ],
      "payable": false,
      "stateMutability": "view",
      "type": "function",
      "signature": "0x8d977672"
    },
    {
      "constant": true,
      "inputs": [],
      "name": "taskCount",
      "outputs": [
        {
          "name": "",
          "type": "uint256"
        }
      ],
      "payable": false,
      "stateMutability": "view",
      "type": "function",
      "signature": "0xb6cb58a5"
    },
    {
      "inputs": [],
      "payable": false,
      "stateMutability": "nonpayable",
      "type": "constructor",
      "signature": "constructor"
    },
    {
      "anonymous": false,
      "inputs": [
        {
          "indexed": false,
          "name": "id",
          "type": "uint256"
        },
        {
          "indexed": false,
          "name": "content",
          "type": "string"
        },
        {
          "indexed": false,
          "name": "completed",
          "type": "bool"
        }
      ],
      "name": "TaskCreated",
      "type": "event",
      "signature": "0x05d0fb833127fc08168556d0e7ca9554fc3f6bc843b3b7d2bf1c35aea6bab660"
    },
    {
      "anonymous": false,
      "inputs": [
        {
          "indexed": false,
          "name": "id",
          "type": "uint256"
        },
        {
          "indexed": false,
          "name": "completed",
          "type": "bool"
        }
      ],
      "name": "TaskCompleted",
      "type": "event",
      "signature": "0xe21fa966ca5cd02748c0752352d18c48165e61cb55b4c29cccf924b5a95fcff1"
    },
    {
      "anonymous": false,
      "inputs": [
        {
          "indexed": false,
          "name": "id",
          "type": "uint256"
        }
      ],
      "name": "TaskDeleted",
      "type": "event",
      "signature": "0xd078b251d950cc55c44340be1db732337ef4939a76e1367ee271ad2cb19c46af"
    },
    {
      "anonymous": false,
      "inputs": [
        {
          "indexed": false,
          "name": "id",
          "type": "uint256"
        },
        {
          "indexed": false,
          "name": "content",
          "type": "string"
        }
      ],
      "name": "TaskEdited",
      "type": "event",
      "signature": "0x126a0ea5197c062eb92c789989294eb8d2aef31cf41fd012da26dfab98b29a16"
    },
    {
      "constant": false,
      "inputs": [
        {
          "name": "_content",
          "type": "string"
        }
      ],
      "name": "createTask",
      "outputs": [],
      "payable": false,
      "stateMutability": "nonpayable",
      "type": "function",
      "signature": "0x111002aa"
    },
    {
      "constant": false,
      "inputs": [
        {
          "name": "_id",
          "type": "uint256"
        }
      ],
      "name": "toggleCompleted",
      "outputs": [],
      "payable": false,
      "stateMutability": "nonpayable",
      "type": "function",
      "signature": "0x455f5024"
    },
    {
      "constant": false,
      "inputs": [
        {
          "name": "_id",
          "type": "uint256"
        }
      ],
      "name": "deleteTask",
      "outputs": [],
      "payable": false,
      "stateMutability": "nonpayable",
      "type": "function",
      "signature": "0x560f3192"
    },
    {
      "constant": false,
      "inputs": [
        {
          "name": "_id",
          "type": "uint256"
        },
        {
          "name": "_content",
          "type": "string"
        }
      ],
      "name": "editTask",
      "outputs": [],
      "payable": false,
      "stateMutability": "nonpayable",
      "type": "function",
      "signature": "0xcb7bd995"
    }
  ],
  "bytecode": "0x60806040526000805534801561001457600080fd5b5060408051808201909152600481527f7465737400000000000000000000000000000000000000000000000000000000602082015261005b90640100000000610060810204565b61021f565b60008054600190810180835560408051606081018252828152602080820187815282840187905293865284815291909420845181559151805192936100ad93908501929190910190610184565b5060408201518160020160006101000a81548160ff0219169083151502179055509050507f05d0fb833127fc08168556d0e7ca9554fc3f6bc843b3b7d2bf1c35aea6bab660600054826000604051808481526020018060200183151515158152602001828103825284818151815260200191508051906020019080838360005b8381101561014557818101518382015260200161012d565b50505050905090810190601f1680156101725780820380516001836020036101000a031916815260200191505b5094505050505060405180910390a150565b828054600181600116156101000203166002900490600052602060002090601f016020900481019282601f106101c557805160ff19168380011785556101f2565b828001600101855582156101f2579182015b828111156101f25782518255916020019190600101906101d7565b506101fe929150610202565b5090565b61021c91905b808211156101fe5760008155600101610208565b90565b6108d18061022e6000396000f3fe6080604052600436106100775763ffffffff7c0100000000000000000000000000000000000000000000000000000000600035041663111002aa811461007c578063455f502414610131578063560f31921461015b5780638d97767214610185578063b6cb58a514610239578063cb7bd99514610260575b600080fd5b34801561008857600080fd5b5061012f6004803603602081101561009f57600080fd5b8101906020810181356401000000008111156100ba57600080fd5b8201836020820111156100cc57600080fd5b803590602001918460018302840111640100000000831117156100ee57600080fd5b91908080601f01602080910402602001604051908101604052809392919081815260200183838082843760009201919091525092955061031a945050505050565b005b34801561013d57600080fd5b5061012f6004803603602081101561015457600080fd5b503561043e565b34801561016757600080fd5b5061012f6004803603602081101561017e57600080fd5b50356104ed565b34801561019157600080fd5b506101af600480360360208110156101a857600080fd5b5035610550565b604051808481526020018060200183151515158152602001828103825284818151815260200191508051906020019080838360005b838110156101fc5781810151838201526020016101e4565b50505050905090810190601f1680156102295780820380516001836020036101000a031916815260200191505b5094505050505060405180910390f35b34801561024557600080fd5b5061024e6105ff565b60408051918252519081900360200190f35b34801561026c57600080fd5b5061012f6004803603604081101561028357600080fd5b813591908101906040810160208201356401000000008111156102a557600080fd5b8201836020820111156102b757600080fd5b803590602001918460018302840111640100000000831117156102d957600080fd5b91908080601f016020809104026020016040519081016040528093929190818152602001838380828437600092019190915250929550610605945050505050565b60008054600190810180835560408051606081018252828152602080820187815282840187905293865284815291909420845181559151805192936103679390850192919091019061074e565b5060408201518160020160006101000a81548160ff0219169083151502179055509050507f05d0fb833127fc08168556d0e7ca9554fc3f6bc843b3b7d2bf1c35aea6bab660600054826000604051808481526020018060200183151515158152602001828103825284818151815260200191508051906020019080838360005b838110156103ff5781810151838201526020016103e7565b50505050905090810190601f16801561042c5780820380516001836020036101000a031916815260200191505b5094505050505060405180910390a150565b60008181526001602081905260409091206002808201805460ff19811660ff90911615179055818301805492938493849361048c9392839260001991811615610100029190910116046107cc565b50600291820154908201805460ff191660ff92831615151790559082015460408051858152919092161515602082015281517fe21fa966ca5cd02748c0752352d18c48165e61cb55b4c29cccf924b5a95fcff1929181900390910190a15050565b60008181526001602081905260408220828155919061050e90830182610841565b50600201805460ff191690556040805182815290517fd078b251d950cc55c44340be1db732337ef4939a76e1367ee271ad2cb19c46af9181900360200190a150565b600160208181526000928352604092839020805481840180548651600296821615610100026000190190911695909504601f810185900485028601850190965285855290949193929091908301828280156105ec5780601f106105c1576101008083540402835291602001916105ec565b820191906000526020600020905b8154815290600101906020018083116105cf57829003601f168201915b5050506002909301549192505060ff1683565b60005481565b60008281526001602081815260409092208351909261062a928401919085019061074e565b50806001600085815260200190815260200160002060008201548160000155600182018160010190805460018160011615610100020316600290046106709291906107cc565b50600291820154908201805460ff191660ff9092161515919091179055604080518581526020810182815260018581018054610100928116159290920260001901909116949094049282018390527f126a0ea5197c062eb92c789989294eb8d2aef31cf41fd012da26dfab98b29a169387939092919060608301908490801561073a5780601f1061070f5761010080835404028352916020019161073a565b820191906000526020600020905b81548152906001019060200180831161071d57829003601f168201915b5050935050505060405180910390a1505050565b828054600181600116156101000203166002900490600052602060002090601f016020900481019282601f1061078f57805160ff19168380011785556107bc565b828001600101855582156107bc579182015b828111156107bc5782518255916020019190600101906107a1565b506107c8929150610888565b5090565b828054600181600116156101000203166002900490600052602060002090601f016020900481019282601f1061080557805485556107bc565b828001600101855582156107bc57600052602060002091601f016020900482015b828111156107bc578254825591600101919060010190610826565b50805460018160011615610100020316600290046000825580601f106108675750610885565b601f0160209004906000526020600020908101906108859190610888565b50565b6108a291905b808211156107c8576000815560010161088e565b9056fea165627a7a723058207f8a2c81fe542fa77760650577adf3637ac78c9620fcaef0e2789e377d97ff100029",
  "source": "pragma solidity >=0.4.22 <0.9.0;\r\n\r\ncontract TodoList {\r\n    uint public taskCount = 0;\r\n\r\n    struct Task {\r\n        uint id;\r\n        string content;\r\n        bool completed;\r\n    }\r\n\r\n    mapping(uint => Task) public tasks;\r\n\r\n    event TaskCreated(\r\n        uint id,\r\n        string content,\r\n        bool completed\r\n    );\r\n\r\n    event TaskCompleted(\r\n        uint id,\r\n        bool completed\r\n    );\r\n\r\n    event TaskDeleted(\r\n        uint id\r\n    );\r\n\r\n    event TaskEdited(\r\n        uint id,\r\n        string content\r\n    );\r\n\r\n    constructor() public {\r\n        createTask(\"test\");\r\n    }\r\n\r\n    function createTask(string memory _content) public {\r\n        taskCount++;\r\n        tasks[taskCount] = Task(taskCount, _content, false);\r\n        emit TaskCreated(taskCount, _content, false);\r\n    }\r\n\r\n    function toggleCompleted(uint _id) public {\r\n        Task storage _task = tasks[_id];\r\n        _task.completed = !_task.completed;\r\n        tasks[_id] = _task;\r\n        emit TaskCompleted(_id, _task.completed);\r\n    }\r\n\r\n    function deleteTask(uint _id) public {\r\n        delete tasks[_id]; \r\n\r\n        emit TaskDeleted(_id);\r\n    }\r\n\r\n    function editTask(uint _id, string memory _content) public {\r\n        Task storage _task = tasks[_id];\r\n        _task.content = _content;\r\n        tasks[_id] = _task;\r\n        emit TaskEdited(_id, _task.content);\r\n    }\r\n\r\n}",
  "sourcePath": "D:/projects/eth-todolist/contracts/TodoList.sol",
  "compiler": {
    "name": "solc",
    "version": "0.5.0+commit.1d4f565a.Emscripten.clang"
  },
  "schemaVersion": "3.0.1",
  "updatedAt": "2024-11-22T19:18:15.435Z",
  "devdoc": {
    "methods": {}
  },
  "userdoc": {
    "methods": {}
  }
}